:100000000C9461000C947E000C947E000C947E0095
:100010000C947E000C947E000C947E000C947E0068
:100020000C947E000C947E000C947E000C947E0058
:100030000C947E000C947E000C947E000C947E0048
:100040000C94A0020C947E000C947E000C947E0014
:100050000C947E000C947E000C947E000C947E0028
:100060000C947E000C947E0000000000230026000B
:10007000290000000008000201000003040700003E
:1000800000000000000000000000250028002B00F8
:1000900000000000240027002A00040404040404D3
:1000A0000404020202020202030303030303010227
:1000B00004081020408001020408102001020408F6
:1000C000102011241FBECFEFD8E0DEBFCDBF11E05E
:1000D000A0E0B1E0E0ECF7E002C005900D92A8329C
:1000E000B107D9F721E0A8E2B1E001C01D92A53324
:1000F000B207E1F70E94EA020C94DE030C940000C0
:1001000090E0FC01E255FF4F249186569F4FFC0181
:100110008491882399F090E0880F991FFC01E057A3
:10012000FF4FA591B491FC01EA57FF4F859194913F
:100130008FB7F894EC91E22BEC938FBF0895833046
:1001400081F028F4813099F08230A9F00895873049
:10015000A9F08830C9F08430B1F4809180008F7D9F
:1001600003C0809180008F7780938000089584B5CC
:100170008F7784BD089584B58F7DFBCF8091B000CB
:100180008F778093B00008958091B0008F7DF9CF74
:10019000CF93DF93EFE7F0E08491EBEBF0E0D491C5
:1001A000E7EAF0E0C491CC23A1F081110E949F0006
:1001B000EC2FF0E0EE0FFF1FE859FF4FA591B4912F
:1001C000EC91ED2381E090E009F480E0DF91CF91A4
:1001D000089580E090E0FACF1F93CF93DF93282F0C
:1001E00030E0F901EE58FF4F8491F901E255FF4FDD
:1001F000D491F901E656FF4FC491CC23A9F0162FF4
:1002000081110E949F00EC2FF0E0EE0FFF1FEA57D4
:10021000FF4FA591B4918FB7F894EC91111108C0DC
:10022000D095DE23DC938FBFDF91CF911F9108958E
:10023000DE2BF8CF3FB7F8948091310190913201D5
:10024000A0913301B091340126B5A89B05C02F3F82
:1002500019F00196A11DB11D3FBFBA2FA92F982FEC
:100260008827BC01CD01620F711D811D911D42E0E7
:10027000660F771F881F991F4A95D1F708958F92AF
:100280009F92AF92BF92CF92DF92EF92FF924B017B
:100290005C010E941A016B017C010E941A016C1919
:1002A0007D098E099F09683E734081059105A8F379
:1002B00021E0821A9108A108B10888EEC80E83E0F7
:1002C000D81EE11CF11C81149104A104B10429F78A
:1002D000FF90EF90DF90CF90BF90AF909F908F9066
:1002E000089561E08EE00E94EC0061E08FE00E94E2
:1002F000EC0061E080E10E94EC0061E081E10E949D
:10030000EC0061E082E10E94EC0061E083E10E9488
:10031000EC0061E08BE00E94EC0061E08CE00E9468
:10032000EC0061E089E00E94EC0061E08AE00C945E
:10033000EC000F931F93CF93DF93EC018B0160E0F0
:1003400088810E94EC0060E08C810E94EC0061E0FA
:10035000F80180810E94EC0060E0F80182810E9437
:10036000EC0060E0F80184810E94EC0061E08A8189
:10037000DF91CF911F910F910C94EC000F931F937D
:10038000CF93DF938C01EB0161E0FC0184810E943B
:10039000EC0060E0F80182810E94EC0060E0F8016E
:1003A00080810E94EC0061E088810E94EC0060E0A6
:1003B0008A810E94EC0060E08C81DF91CF911F91D7
:1003C0000F910C94EC000F931F93CF93DF93C2E037
:1003D000D0E0880F991FFC01E85FFE4F008111817A
:1003E000CE010297B80102C0759567958A95E2F72C
:1003F00061708C2F0E94EC002196C930D10581F7E5
:10040000DF91CF911F910F9108954F925F926F925C
:100410007F928F929F92AF92BF92CF92DF92EF9294
:10042000FF920F931F93CF93DF938C017B01EA011F
:1004300059010E94C800892B09F459C09AE0492E3D
:10044000512CCA15DB050CF46AC0CE01B2010E9422
:10045000B6033B016C0170932B0160932A019093CA
:1004600029018093280182E3882E912C61E0F80114
:1004700080810E94EC0060E0F80182810E94EC0023
:1004800061E0F70180810E94EC0060E0F701828169
:100490000E94EC00C6010E94E3016AE070E080E087
:1004A00090E00E943F0161E0F80182810E94EC002F
:1004B00060E0F80180810E94EC0061E0F701828138
:1004C0000E94EC0060E0F70180810E94EC00C30113
:1004D0000E94E3016AE070E080E090E00E943F014A
:1004E000F1E08F1A910809F0C1CF2197AACF0E949D
:1004F00071016AE070E080E090E0DF91CF911F91A0
:100500000F91FF90EF90DF90CF90BF90AF909F90B2
:100510008F907F906F905F904F900C943F01DF9190
:10052000CF911F910F91FF90EF90DF90CF90BF90F0
:10053000AF909F908F907F906F905F904F900895B5
:100540001F920F920FB60F9211242F933F938F9308
:100550009F93AF93BF9380912D0190912E01A09115
:100560002F01B091300130912C0123E0230F2D3762
:1005700058F50196A11DB11D20932C0180932D01EA
:1005800090932E01A0932F01B093300180913101FF
:1005900090913201A0913301B09134010196A11DD7
:1005A000B11D8093310190933201A0933301B09338
:1005B0003401BF91AF919F918F913F912F910F90F7
:1005C0000FBE0F901F90189526E8230F0296A11DCD
:1005D000B11DD2CF789484B5826084BD84B581602A
:1005E00084BD85B5826085BD85B5816085BD8091FE
:1005F0006E00816080936E00109281008091810076
:10060000826080938100809181008160809381006D
:10061000809180008160809380008091B10084602F
:100620008093B1008091B00081608093B000809190
:100630007A00846080937A0080917A00826080934F
:100640007A0080917A00816080937A0080917A00AC
:10065000806880937A001092C100C2E08C2F0E94C3
:100660008000CF5FC930D1F789E00E9480008AE026
:100670000E9480008BE00E9480008CE00E9480003D
:100680008EE00E9480008FE00E94800080E10E9446
:10069000800081E10E94800082E10E94800083E16D
:1006A0000E9480000E94710164EF71E080E090E0A0
:1006B0000E943F01C0E0D0E00E94C800892B09F4ED
:1006C0004CC062E271E08CE191E00E94BE0123E047
:1006D00030E04AE050E060E071E084E091E00E94A8
:1006E000050262E271E08CE191E00E94990130E044
:1006F00020E042E050E060E071E084E091E00E94A0
:1007000005026CE171E082E291E00E94BE0123E00B
:1007100030E045E050E064E071E080E091E00E946C
:1007200005026CE171E082E291E00E94990130E003
:1007300020E042E050E064E071E080E091E00E945F
:1007400005026AE070E080E090E00E943F0120979F
:1007500009F4B2CF0E940000AFCF0E9471016AE09D
:1007600070E080E090E00E943F01EBCF97FB072E06
:1007700016F4009407D077FD09D00E94CA0307FC45
:1007800005D03EF4909581959F4F089570956195A1
:100790007F4F0895AA1BBB1B51E107C0AA1FBB1FB7
:1007A000A617B70710F0A61BB70B881F991F5A95FD
:1007B000A9F780959095BC01CD010895F894FFCFDD
:1007C0000B000C0009000A003F0006005B004F0010
:1007D00066006D007D0007007F006F000E000F00B7
:0807E0001000110012001300CB
:00000001FF
