:100000000C9461000C947E000C947E000C947E0095
:100010000C947E000C947E000C947E000C947E0068
:100020000C947E000C947E000C947E000C947E0058
:100030000C947E000C947E000C947E000C947E0048
:100040000C9471020C947E000C947E000C947E0043
:100050000C947E000C947E000C947E000C947E0028
:100060000C947E000C947E0000000000230026000B
:10007000290000000008000201000003040700003E
:1000800000000000000000000000250028002B00F8
:1000900000000000240027002A00040404040404D3
:1000A0000404020202020202030303030303010227
:1000B00004081020408001020408102001020408F6
:1000C000102011241FBECFEFD8E0DEBFCDBF11E05E
:1000D000A0E0B1E0E2E3F7E002C005900D92A032AB
:1000E000B107D9F721E0A0E2B1E001C01D92AD3225
:1000F000B207E1F70E94BB020C9497030C94000036
:1001000090E0FC01E255FF4F249186569F4FFC0181
:100110008491882399F090E0880F991FFC01E057A3
:10012000FF4FA591B491FC01EA57FF4F859194913F
:100130008FB7F894EC91E22BEC938FBF0895833046
:1001400081F028F4813099F08230A9F00895873049
:10015000A9F08830C9F08430B1F4809180008F7D9F
:1001600003C0809180008F7780938000089584B5CC
:100170008F7784BD089584B58F7DFBCF8091B000CB
:100180008F778093B00008958091B0008F7DF9CF74
:10019000CF93DF93EFE7F0E08491EBEBF0E0D491C5
:1001A000E7EAF0E0C491CC23A1F081110E949F0006
:1001B000EC2FF0E0EE0FFF1FE859FF4FA591B4912F
:1001C000EC91ED2381E090E009F480E0DF91CF91A4
:1001D000089580E090E0FACF1F93CF93DF93282F0C
:1001E00030E0F901EE58FF4F8491F901E255FF4FDD
:1001F000D491F901E656FF4FC491CC23A9F0162FF4
:1002000081110E949F00EC2FF0E0EE0FFF1FEA57D4
:10021000FF4FA591B4918FB7F894EC91111108C0DC
:10022000D095DE23DC938FBFDF91CF911F9108958E
:10023000DE2BF8CF3FB7F8948091290190912A01E5
:10024000A0912B01B0912C0126B5A89B05C02F3F92
:1002500019F00196A11DB11D3FBFBA2FA92F982FEC
:100260008827BC01CD01620F711D811D911D42E0E7
:10027000660F771F881F991F4A95D1F708958F92AF
:100280009F92AF92BF92CF92DF92EF92FF924B017B
:100290005C010E941A016B017C010E941A016C1919
:1002A0007D098E099F09683E734081059105A8F379
:1002B00021E0821A9108A108B10888EEC80E83E0F7
:1002C000D81EE11CF11C81149104A104B10429F78A
:1002D000FF90EF90DF90CF90BF90AF909F908F9066
:1002E000089561E08EE00E94EC0061E08FE00E94E2
:1002F000EC0061E080E10E94EC0061E081E10E949D
:10030000EC0061E082E10E94EC0061E083E10E9488
:10031000EC0061E089E00E94EC0061E08AE00C946E
:10032000EC000F931F93CF93DF93EC018B0160E000
:1003300088810E94EC0060E08C810E94EC0061E00A
:10034000F80180810E94EC0060E0F80182810E9447
:10035000EC0060E0F80184810E94EC0061E08A8199
:10036000DF91CF911F910F910C94EC000F931F938D
:10037000CF93DF938C01EB0161E0FC0184810E944B
:10038000EC0060E0F80182810E94EC0060E0F8017E
:1003900080810E94EC0061E088810E94EC0060E0B6
:1003A0008A810E94EC0060E08C81DF91CF911F91E7
:1003B0000F910C94EC000F931F93CF93DF93C2E047
:1003C000D0E0880F991FFC01E050FF4F00811181A0
:1003D000CE010297B80102C0759567958A95E2F73C
:1003E00061708C2F0E94EC002196C930D10581F7F5
:1003F000DF91CF911F910F9108958F929F92AF92AD
:10040000BF92CF92DF92EF92FF920F931F93CF9301
:10041000DF93EC016B010E94C800892B09F440C0F6
:100420009AE0A92EB12CCC15DD050CF44DC0CE01FF
:10043000B5010E946F038B017C01709323016093CF
:100440002201909321018093200182E3882E912C38
:1004500061E089E00E94EC0060E08AE00E94EC002C
:10046000C7010E94DB016AE070E080E090E00E943A
:100470003F0161E08AE00E94EC0060E089E00E94B8
:10048000EC00C8010E94DB016AE070E080E090E0CF
:100490000E943F0181E0881A9108D1F62197C3CFCD
:1004A0000E9471016AE070E080E090E0DF91CF91FE
:1004B0001F910F91FF90EF90DF90CF90BF90AF9082
:1004C0009F908F900C943F01DF91CF911F910F91DE
:1004D000FF90EF90DF90CF90BF90AF909F908F9064
:1004E00008951F920F920FB60F9211242F933F93EE
:1004F0008F939F93AF93BF93809125019091260195
:10050000A0912701B09128013091240123E0230F0D
:100510002D3758F50196A11DB11D2093240180931C
:10052000250190932601A0932701B0932801809183
:10053000290190912A01A0912B01B0912C010196E3
:10054000A11DB11D8093290190932A01A0932B0135
:10055000B0932C01BF91AF919F918F913F912F91BB
:100560000F900FBE0F901F90189526E8230F02964C
:10057000A11DB11DD2CF789484B5826084BD84B5AD
:10058000816084BD85B5826085BD85B5816085BD8E
:1005900080916E00816080936E0010928100809146
:1005A00081008260809381008091810081608093CE
:1005B0008100809180008160809380008091B100F3
:1005C00084608093B1008091B00081608093B0001E
:1005D00080917A00846080937A0080917A008260B2
:1005E00080937A0080917A00816080937A00809174
:1005F0007A00806880937A001092C100C2E08C2F4C
:100600000E948000CF5FC930D1F789E00E9480004E
:100610008AE00E9480008EE00E9480008FE00E94AD
:10062000800080E10E94800081E10E94800082E1E0
:100630000E94800083E10E9480000E94710164EFAB
:1006400071E080E090E00E943F01C0E0D0E00E94B5
:10065000C800892BD9F16AE171E084E191E00E9440
:10066000B60163E070E08AE090E00E94FD016AE17B
:1006700071E084E191E00E94910170E060E082E02D
:1006800090E00E94FD0164E171E08AE191E00E9446
:10069000B60163E070E085E090E00E94FD0164E156
:1006A00071E08AE191E00E94910170E060E082E0F7
:1006B00090E00E94FD016AE070E080E090E00E941E
:1006C0003F01209721F20E940000C1CF0E947101DA
:1006D0006AE070E080E090E00E943F01ECCF97FB81
:1006E000072E16F4009407D077FD09D00E948303EB
:1006F00007FC05D03EF4909581959F4F0895709525
:1007000061957F4F0895AA1BBB1B51E107C0AA1F2B
:10071000BB1FA617B70710F0A61BB70B881F991FA2
:100720005A95A9F780959095BC01CD010895F8944C
:02073000FFCFF9
:100732003F0006005B004F0066006D007D00070071
:100742007F006F000E000F00100011001200130056
:00000001FF
