:100000000C9461000C947E000C947E000C947E0095
:100010000C947E000C947E000C947E000C947E0068
:100020000C947E000C947E000C947E000C947E0058
:100030000C947E000C947E000C947E000C947E0048
:100040000C945F020C947E000C947E000C947E0055
:100050000C947E000C947E000C947E000C947E0028
:100060000C947E000C947E0000000000230026000B
:10007000290000000008000201000003040700003E
:1000800000000000000000000000250028002B00F8
:1000900000000000240027002A00040404040404D3
:1000A0000404020202020202030303030303010227
:1000B00004081020408001020408102001020408F6
:1000C000102011241FBECFEFD8E0DEBFCDBF11E05E
:1000D000A0E0B1E0EAE7F7E002C005900D92A83297
:1000E000B107D9F721E0A8E2B1E001C01D92A53324
:1000F000B207E1F70E94A9020C94BB030C94000024
:1001000090E0FC01E255FF4F249186569F4FFC0181
:100110008491882399F090E0880F991FFC01E057A3
:10012000FF4FA591B491FC01EA57FF4F859194913F
:100130008FB7F894EC91E22BEC938FBF0895833046
:1001400081F028F4813099F08230A9F00895873049
:10015000A9F08830C9F08430B1F4809180008F7D9F
:1001600003C0809180008F7780938000089584B5CC
:100170008F7784BD089584B58F7DFBCF8091B000CB
:100180008F778093B00008958091B0008F7DF9CF74
:100190001F93CF93DF93282F30E0F901EE58FF4FE4
:1001A0008491F901E255FF4FD491F901E656FF4FD2
:1001B000C491CC23A9F0162F81110E949F00EC2F2F
:1001C000F0E0EE0FFF1FEA57FF4FA591B4918FB7F4
:1001D000F894EC91111108C0D095DE23DC938FBF09
:1001E000DF91CF911F910895DE2BF8CF3FB7F894A0
:1001F0008091310190913201A0913301B09134018D
:1002000026B5A89B05C02F3F19F00196A11DB11D71
:100210003FBFBA2FA92F982F8827BC01CD01620FAD
:10022000711D811D911D42E0660F771F881F991F68
:100230004A95D1F708958F929F92AF92BF92CF9235
:10024000DF92EF92FF924B015C010E94F6006B017E
:100250007C010E94F6006C197D098E099F09683E99
:10026000734081059105A8F321E0821A9108A10845
:10027000B10888EEC80E83E0D81EE11CF11C811481
:100280009104A104B10429F7FF90EF90DF90CF9083
:10029000BF90AF909F908F90089561E08EE00E9494
:1002A000C80061E08FE00E94C80061E080E10E9428
:1002B000C80061E081E10E94C80061E082E10E9423
:1002C000C80061E083E10E94C80060E08BE00E940A
:1002D000C80060E08CE00E94C80060E089E00E94F5
:1002E000C80060E08AE00C94C8000F931F93CF937E
:1002F000DF93EC018B0160E088810E94C80060E020
:100300008C810E94C80061E0F80180810E94C800D1
:1003100060E0F80182810E94C80060E0F8018481F9
:100320000E94C80061E08A81DF91CF911F910F91F7
:100330000C94C8000F931F93CF93DF938C01EB01B4
:1003400061E0FC0184810E94C80060E0F8018281C4
:100350000E94C80060E0F80180810E94C80061E04E
:1003600088810E94C80060E08A810E94C80060E025
:100370008C81DF91CF911F910F910C94C8000F9346
:100380001F93CF93DF93C2E0D0E0880F991FFC0149
:10039000E85FFE4F00811181CE010297B80102C0D3
:1003A000759567958A95E2F761708C2F0E94C80059
:1003B0002196C930D10581F7DF91CF911F910F911F
:1003C00008954F925F926F927F928F929F92AF9219
:1003D000BF92CF92DF92EF92FF920F931F93CF9332
:1003E000DF938C017B01EA0159019AE0492E512CDF
:1003F000CA15DB050CF452C0CE01B2010E94930372
:100400003B016C0170932B0160932A0190932901A9
:100410008093280182E3882E912C61E0F80180818D
:100420000E94C80060E0F80182810E94C80061E07B
:10043000F70180810E94C80060E0F70182810E947C
:10044000C800C6010E94BF016AE070E080E090E051
:100450000E941B0161E0F80182810E94C80060E0F7
:10046000F80180810E94C80061E0F70182810E944A
:10047000C80060E0F70180810E94C800C3010E94AB
:10048000BF016AE070E080E090E00E941B01F1E0B3
:100490008F1A910809F0C1CF2197AACFDF91CF9190
:1004A0001F910F91FF90EF90DF90CF90BF90AF9092
:1004B0009F908F907F906F905F904F9008951F92C4
:1004C0000F920FB60F9211242F933F938F939F9308
:1004D000AF93BF9380912D0190912E01A0912F0198
:1004E000B091300130912C0123E0230F2D3758F5C6
:1004F0000196A11DB11D20932C0180932D01909395
:100500002E01A0932F01B093300180913101909181
:100510003201A0913301B09134010196A11DB11DAA
:100520008093310190933201A0933301B093340151
:10053000BF91AF919F918F913F912F910F900FBEDF
:100540000F901F90189526E8230F0296A11DB11D4C
:10055000D2CF789484B5826084BD84B5816084BD37
:1005600085B5826085BD85B5816085BD80916E0051
:10057000816080936E001092810080918100826082
:1005800080938100809181008160809381008091BF
:1005900080008160809380008091B10084608093AE
:1005A000B1008091B00081608093B00080917A00AA
:1005B000846080937A0080917A00826080937A00D0
:1005C00080917A00816080937A0080917A008068BF
:1005D00080937A001092C100C2E08C2F0E948000AC
:1005E000CF5FC930D1F789E00E9480008AE00E9485
:1005F00080008BE00E9480008CE00E9480008EE0F2
:100600000E9480008FE00E94800080E10E948000B4
:1006100081E10E94800082E10E94800083E10E94CB
:1006200080000E944D0164EF71E080E090E00E9444
:100630001B01CFE7D0E00BEB10E097EAE92E90E04A
:10064000F92E20E0C22E20E0D22EFE018491F80186
:10065000A490F701B490BB2009F45CC081110E9402
:100660009F00EB2DF0E0EE0FFF1FE859FF4FA59123
:10067000B4918C91A82209F44DC062E271E08CE142
:1006800091E00E949A0123E030E04AE050E060E00F
:1006900071E084E091E00E94E10162E271E08CE1AE
:1006A00091E00E94750130E020E042E050E060E01F
:1006B00071E084E091E00E94E1016CE171E082E28E
:1006C00091E00E949A0123E030E045E050E064E0D0
:1006D00071E080E091E00E94E1016CE171E082E272
:1006E00091E00E94750130E020E042E050E064E0DB
:1006F00071E080E091E00E94E1016AE070E080E05A
:1007000090E00E941B01C114D10409F49ECF0E9405
:1007100000009BCF0E944D016AE070E080E090E015
:100720000E941B01EACF97FB072E16F4009407D016
:1007300077FD09D00E94A70307FC05D03EF49095F1
:1007400081959F4F0895709561957F4F0895AA1BDD
:10075000BB1B51E107C0AA1FBB1FA617B70710F0AC
:10076000A61BB70B881F991F5A95A9F780959095DE
:0A077000BC01CD010895F894FFCFFD
:10077A000B000C0009000A003F0006005B004F0056
:10078A0066006D007D0007007F006F000E000F00FD
:08079A00100011001200130011
:00000001FF
