:100000000C9462000C948A000C948A000C948A0070
:100010000C948A000C948A000C948A000C948A0038
:100020000C948A000C948A000C948A000C948A0028
:100030000C948A000C948A000C948A000C948A0018
:100040000C94D5050C948A000C9445060C941F065C
:100050000C948A000C948A000C948A000C948A00F8
:100060000C948A000C948A000000000023002600F3
:10007000290000000008000201000003040700003E
:1000800000000000000000000000250028002B00F8
:1000900000000000240027002A00040404040404D3
:1000A0000404020202020202030303030303010227
:1000B00004081020408001020408102001020408F6
:1000C0001020840711241FBECFEFD8E0DEBFCDBFC4
:1000D00022E0A0E5B1E001C01D92A230B207E1F735
:1000E00011E0A0E0B1E0E4EAF4E102C005900D9275
:1000F000A035B107D9F710E0C2E6D0E004C02197DF
:10010000FE010E945808C136D107C9F70E94770640
:100110000C94500A0C94000090E0FC01E255FF4F53
:10012000249186569F4FFC018491882399F090E09A
:10013000880F991FFC01E057FF4FA591B491FC0176
:10014000EA57FF4F859194918FB7F894EC91E22B89
:10015000EC938FBF0895833081F028F4813099F0BB
:100160008230A9F008958730A9F08830C9F0843032
:10017000B1F4809180008F7D03C0809180008F77E3
:1001800080938000089584B58F7784BD089584B5E9
:100190008F7DFBCF8091B0008F778093B000089562
:1001A0008091B0008F7DF9CFCF93DF93EFE7F0E040
:1001B0008491EBEBF0E0D491E7EAF0E0C491CC233A
:1001C000A1F081110E94AB00EC2FF0E0EE0FFF1FB9
:1001D000E859FF4FA591B491EC91ED2381E090E0B7
:1001E00009F480E0DF91CF91089580E090E0FACFAC
:1001F0001F93CF93DF93282F30E0F901EE58FF4F84
:100200008491F901E255FF4FD491F901E656FF4F71
:10021000C491CC23A9F0162F81110E94AB00EC2FC2
:10022000F0E0EE0FFF1FEA57FF4FA591B4918FB793
:10023000F894EC91111108C0D095DE23DC938FBFA8
:10024000DF91CF911F910895DE2BF8CF3FB7F8943F
:100250008091590190915A01A0915B01B0915C018C
:1002600026B5A89B05C02F3F19F00196A11DB11D11
:100270003FBFBA2FA92F982F8827BC01CD01620F4D
:10028000711D811D911D42E0660F771F881F991F08
:100290004A95D1F708958F929F92AF92BF92CF92D5
:1002A000DF92EF92FF924B015C010E9426016B01ED
:1002B0007C010E9426016C197D098E099F09683E08
:1002C000734081059105A8F321E0821A9108A108E5
:1002D000B10888EEC80E83E0D81EE11CF11C811421
:1002E0009104A104B10429F7FF90EF90DF90CF9023
:1002F000BF90AF909F908F9008950895AF92BF9256
:10030000CF92DF92EF92FF920F931F93CF93DF93E1
:100310006C017B018B01040F151FEB015E01AE1810
:10032000BF08C017D10759F06991D601ED91FC9132
:100330000190F081E02DC6010995892B79F7C5015F
:10034000DF91CF911F910F91FF90EF90DF90CF90B1
:10035000BF90AF900895FC01538D448D252F30E060
:10036000842F90E0821B930B541710F0CF960895C2
:1003700001970895FC01918D828D981761F0A28DEF
:10038000AE0FBF2FB11D5D968C91928D9F5F9F73B5
:10039000928F90E008958FEF9FEF08952FB7F89414
:1003A00080915D0190915E01A0915F01B09160012B
:1003B0002FBF8093690190936A01A0936B01B09362
:1003C0006C0181E691E00E94BA0197FF26C02FB729
:1003D000F89480915D0190915E01A0915F01B091D0
:1003E00060012FBF4091690150916A0160916B01DA
:1003F00070916C01841B950BA60BB70B40916501A6
:1004000050916601609167017091680184179507AA
:10041000A607B707B0F28FEF9FEF0895FC01918D0B
:10042000828D981731F0828DE80FF11D858D90E057
:1004300008958FEF9FEF0895FC01918D228D892FF4
:1004400090E0805C9F4F821B91098F7399270895DC
:1004500081E691E00E941C0221E0892B09F420E052
:10046000822F089580E090E0892B29F00E942802D5
:1004700081110C9400000895FC01A48DA80FB92FE0
:10048000B11DA35ABF4F2C91848D90E001968F73BC
:100490009927848FA689B7892C93A089B1898C91DB
:1004A000837080648C93938D848D981306C002882A
:1004B000F389E02D80818F7D80830895EF92FF92F4
:1004C0000F931F93CF93DF93EC0181E0888F9B8D77
:1004D0008C8D98131AC0E889F989808185FF15C031
:1004E0009FB7F894EE89FF896083E889F989808154
:1004F0008370806480839FBF81E090E0DF91CF9123
:100500001F910F91FF90EF900895F62E0B8D10E044
:100510000F5F1F4F0F731127E02E8C8D8E110CC0B3
:100520000FB607FCFACFE889F989808185FFF5CFFE
:10053000CE010E943C02F1CFEB8DEC0FFD2FF11D9F
:10054000E35AFF4FF0829FB7F8940B8FEA89FB893B
:1005500080818062CFCFCF93DF93EC01888D882399
:10056000B9F0AA89BB89E889F9898C9185FD03C016
:10057000808186FD0DC00FB607FCF7CF8C9185FFFB
:10058000F2CF808185FFEDCFCE010E943C02E9CF02
:10059000DF91CF91089561E08EE00E94F80061E064
:1005A0008FE00E94F80061E080E10E94F80061E0C5
:1005B00081E10E94F80061E082E10E94F80061E0C0
:1005C00083E10E94F80061E089E00E94F80061E0A8
:1005D0008AE00C94F8000F931F93CF93DF93EC0104
:1005E0008B0160E088810E94F80060E08C810E94AD
:1005F000F80061E0F80180810E94F80060E0F801F5
:1006000082810E94F80060E0F80184810E94F80075
:1006100061E08A81DF91CF911F910F910C94F800D6
:100620000F931F93CF93DF938C01EB0161E0FC01EB
:1006300084810E94F80060E0F80182810E94F80045
:1006400060E0F80180810E94F80061E088810E94EA
:10065000F80060E08A810E94F80060E08C81DF9100
:10066000CF911F910F910C94F8000F931F93CF938C
:10067000DF93C2E0D0E0880F991FFC01EA5FFE4FD4
:1006800000811181CE010297B80102C0759567956E
:100690008A95E2F761708C2F0E94F8002196C9308C
:1006A000D10581F7DF91CF911F910F9108958F921E
:1006B0009F92AF92BF92CF92DF92EF92FF920F93F1
:1006C0001F93CF93DF93EC016B010E94D400892B21
:1006D00009F44FC09AE0A92EB12CCC15DD050CF41D
:1006E0005CC0209771F460E089E00E94F80060E04F
:1006F0008AE00E94F80090E080E00E943503219794
:10070000ECCFCE01B5010E9430088B017C017093C3
:10071000530160935201909351018093500189E1FC
:10072000882E912C61E089E00E94F80060E08AE068
:100730000E94F800C7010E9435036AE070E080E083
:1007400090E00E944B0161E08AE00E94F80060E0C6
:1007500089E00E94F800C8010E9435036AE070E059
:1007600080E090E00E944B0181E0881A9108D1F668
:10077000C6CF0E94CB026AE070E080E090E0DF919B
:10078000CF911F910F91FF90EF90DF90CF90BF908E
:10079000AF909F908F900C944B01DF91CF911F9160
:1007A0000F91FF90EF90DF90CF90BF90AF909F9010
:1007B0008F90089542E050E068E371E081E691E0B7
:1007C0000C947E01CF93DF93FC01448155816081BD
:1007D000718181E691E00E947E01EC010E94DA03C2
:1007E0008C0F9D1FDF91CF9108950F931F93CF938F
:1007F000DF938C01EB01FC01808191810097E1F096
:100800006881798161157105A9F0428153812C813C
:100810003D814217530770F00E94490A8C819D81E7
:10082000F801958384831D821C82DF91CF911F91F3
:100830000F9108950E94FA0888819981F8019183A7
:1008400080838A819B81938382838C819D81958320
:100850008483198218821B821A82E5CFFC01808171
:100860009181009711F00C94FA080895AF92BF920D
:10087000CF92DF92EF92FF920F931F93CF93DF936C
:10088000DC01CD90DC901197C114D10439F014969D
:10089000CD91DC918C017601209761F4DF91CF91AD
:1008A0001F910F91FF90EF90DF90CF90BF90AF908E
:1008B000089575015701BFEFAB1ABB0AF70180819C
:1008C000082E000C990B0E94ED07892B91F72197B8
:1008D000CC0DDD1D8881082E000C990B0E94ED07C0
:1008E000892B29F0CE15DF0510F02197F3CFAE014B
:1008F0004F5F5F4F4E195F09D80115965C934E9379
:100900001497CE14DF0420F4B701C6010E94400AF8
:10091000D801ED91FC91119714968D919C91E80F5F
:10092000F91F1082BBCF0F931F93CF93DF93EC017E
:1009300088819981009759F02A813B8126173707D2
:1009400030F081E0DF91CF911F910F9108958B01DD
:100950006F5F7F4F0E948309009759F099838883C6
:100960001B830A832C813D81232B59F7FC011082C4
:10097000E8CF80E0E7CFCF92DF92EF92FF920F9324
:100980001F93CF93DF9300D0CDB7DEB78C01C62E77
:10099000FC0111821082138212821582148270E08F
:1009A00060E00E949304F80120813181811137C0F9
:1009B0002115310519F0C9010E94FA08F8011182C8
:1009C000108215821482138212820E94CE010C2C96
:1009D000000CDD0897FD2BC08C159D0541F1898326
:1009E0001A82F801E480F580FFEFEF1AFF0AB701E1
:1009F000C8010E949304882379F0F8012081318195
:100A000084819581BE016F5F7F4F820F931F0E948B
:100A1000490AF801F582E4820E94CE01DBCF1582FB
:100A200014826AE371E0C9010E94490ACECFC8016D
:100A30000F900F90DF91CF911F910F91FF90EF904A
:100A4000DF90CF9008950F931F93CF93DF93CDB78F
:100A5000DEB72C970FB6F894DEBF0FBECDBF62E5B0
:100A600081E691E00E945E0218861F821A8619862E
:100A70001C861B8670E060E0CE0107960E949304FE
:100A80002F813885811181C02115310519F0C901E7
:100A90000E94FA0818861F821C861B861A861986F1
:100AA00081E691E00E941C02892BD1F36BE371E097
:100AB000CE0101960E94BB04BE016F5F7F4FCE0145
:100AC00007960E94F503CE0101960E942E04CE01E6
:100AD00007960E94E203CE0107960E9436048F819A
:100AE0009885009709F459C00E94B1078B0168E30B
:100AF00071E0CE0101960E94BB04BE016F5F7F4F83
:100B0000CE0107960E94F503CE0101960E942E04A5
:100B1000CE0107960E943604CE0107960E94E2039A
:100B20008F8198850097E9F10E94B10785E090E0F8
:100B30000A3011053CF088E090E00431110514F012
:100B40008CE090E0909357018093560185E090E00F
:100B50006A3071053CF088E090E06431710514F072
:100B60008CE090E09093550180935401CE0107965C
:100B70000E942E042C960FB6F894DEBF0FBECDBF98
:100B8000DF91CF911F910F9108951C861B866AE318
:100B900071E0C9010E94490A83CF60E070E0CB0197
:100BA000A5CF60E070E0CB01C1CF1F920F920FB6CE
:100BB0000F9211242F933F938F939F93AF93BF93E3
:100BC00080915D0190915E01A0915F01B091600103
:100BD0003091580123E0230F2D3758F50196A11DC0
:100BE000B11D2093580180935D0190935E01A09305
:100BF0005F01B09360018091590190915A01A091D9
:100C00005B01B0915C010196A11DB11D809359015A
:100C100090935A01A0935B01B0935C01BF91AF9197
:100C20009F918F913F912F910F900FBE0F901F902A
:100C3000189526E8230F0296A11DB11DD2CF1F9251
:100C40000F920FB60F9211242F933F934F935F9300
:100C50006F937F938F939F93AF93BF93EF93FF9384
:100C600081E691E00E943C02FF91EF91BF91AF912C
:100C70009F918F917F916F915F914F913F912F91B4
:100C80000F900FBE0F901F9018951F920F920FB6E6
:100C90000F9211242F938F939F93EF93FF93E091E3
:100CA0007101F09172018081E0917701F0917801FA
:100CB00082FD1BC0908180917A018F5F8F7320919C
:100CC0007B01821741F0E0917A01F0E0EF59FE4F8D
:100CD000958F80937A01FF91EF919F918F912F9142
:100CE0000F900FBE0F901F9018958081F4CF7894CD
:100CF00084B5826084BD84B5816084BD85B5826021
:100D000085BD85B5816085BD80916E0081608093D1
:100D10006E0010928100809181008260809381003A
:100D2000809181008160809381008091800081604A
:100D3000809380008091B10084608093B1008091A5
:100D4000B00081608093B00080917A0084608093CD
:100D50007A0080917A00826080937A0080917A0094
:100D6000816080937A0080917A00806880937A0015
:100D70001092C100E0917101F091720182E08083D4
:100D8000E0916D01F0916E011082E0916F01F091A0
:100D900070018FEC808310927901E0917501F091E0
:100DA000760186E08083E0917301F0917401808187
:100DB00080618083E0917301F0917401808188608B
:100DC0008083E0917301F091740180818068808359
:100DD000E0917301F091740180818F7D808341E106
:100DE00050E06DE371E081E691E00E947E010E9497
:100DF000DA03C2E08C2F0E948C00CF5FC930D1F79C
:100E000089E00E948C008AE00E948C008EE00E94A3
:100E10008C008FE00E948C0080E10E948C0081E1B8
:100E20000E948C0082E10E948C0083E10E948C0071
:100E30000E94CB0264EF71E080E090E00E944B01E1
:100E400000E010E0C6E0D0E00E94D400892B09F455
:100E500052C0D0935701C0935601D0935501C0930F
:100E600054010E94230562E371E08CE291E00E944C
:100E7000100363E070E080915601909157010E9449
:100E8000570362E371E08CE291E00E94EB0270E0B4
:100E900060E082E090E00E9457030E9423056CE22C
:100EA00071E082E391E00E94100363E070E08091C2
:100EB0005401909155010E9457036CE271E082E366
:100EC00091E00E94EB0270E060E082E090E00E941E
:100ED00057036AE070E080E090E00E944B0101154A
:100EE000110509F4B1CF0E942802882309F4ACCF80
:100EF0000E940000A9CF0E94CB026AE070E080E06F
:100F000090E00E944B01E5CFE1E6F1E0138212820E
:100F100088EE93E0A0E0B0E084839583A683B78356
:100F20008EE191E09183808385EC90E095878487C2
:100F300084EC90E09787868780EC90E0918B808BA3
:100F400081EC90E0938B828B82EC90E0958B848B8C
:100F500086EC90E0978B868B118E128E138E148EFA
:100F600008951F93FC0199278827BC01E8941191EB
:100F70001032E9F3193010F01E30C8F31B3251F073
:100F80001D3249F4689406C00E94D807610F711D94
:100F9000811D911D119110531A30B0F33EF49095BC
:100FA0008095709561957F4F8F4F9F4F1F9108954A
:100FB000592F482F372F262F660F771F881F991F0D
:100FC000660F771F881F991F620F731F841F951F5D
:100FD000660F771F881F991F089591110C94F607CB
:100FE000803219F089508550C8F7089599278827CD
:100FF00008952F923F924F925F926F927F928F92BD
:101000009F92AF92BF92CF92DF92EF92FF920F9397
:101010001F93CF93DF93CDB7DEB7CA1BDB0B0FB6A1
:10102000F894DEBF0FBECDBF09942A88398848885E
:101030005F846E847D848C849B84AA84B984C884F4
:10104000DF80EE80FD800C811B81AA81B981CE0FEB
:10105000D11D0FB6F894DEBF0FBECDBFED010895D0
:1010600097FB072E16F4009407D077FD09D00E9455
:10107000440807FC05D03EF4909581959F4F089554
:10108000709561957F4F0895AA1BBB1B51E107C066
:10109000AA1FBB1FA617B70710F0A61BB70B881F08
:1010A000991F5A95A9F780959095BC01CD01089597
:1010B000EE0FFF1F0590F491E02D09940F931F93FD
:1010C000CF93DF938230910510F482E090E0E091BD
:1010D0000002F091010230E020E0B0E0A0E03097A3
:1010E00099F42115310509F44AC0281B390B243025
:1010F0003105D8F58A819B816115710589F1FB0164
:1011000093838283FE0111C040815181028113814A
:1011100048175907E0F04817590799F4109761F0FC
:1011200012960C93129713961C933296CF01DF916F
:10113000CF911F910F910895009300021093010227
:10114000F4CF2115310551F04217530738F0A901AA
:10115000DB019A01BD01DF01F801C1CFEF01F9CF39
:101160009093010280930002CDCFFE01E20FF31FA6
:10117000819391932250310939832883D7CF2091CD
:10118000FE013091FF01232B41F4209102013091A7
:1011900003013093FF012093FE0120910001309163
:1011A00001012115310541F42DB73EB740910401ED
:1011B00050910501241B350BE091FE01F091FF01D8
:1011C000E217F307A0F42E1B3F0B2817390778F01E
:1011D000AC014E5F5F4F2417350748F04E0F5F1F7D
:1011E0005093FF014093FE01819391939FCFF0E0D4
:1011F000E0E09CCFCF93DF930097E9F0FC013297BA
:1012000013821282A0910002B0910102ED0130E040
:1012100020E01097A1F420813181820F931F20914B
:10122000FE013091FF012817390709F061C0F093E2
:10123000FF01E093FE01DF91CF910895EA01CE17FF
:10124000DF07E8F54A815B819E0141155105B1F741
:10125000E901FB83EA8349915991C40FD51FEC172B
:10126000FD0761F4808191810296840F951FE90149
:1012700099838883828193819B838A83F0E0E0E075
:1012800012968D919C9113970097B9F52D913C91F1
:101290001197CD010296820F931F2091FE0130918C
:1012A000FF012817390739F6309751F510920102DE
:1012B00010920002B093FF01A093FE01BCCFD38334
:1012C000C28340815181840F951FC817D90761F4EB
:1012D0004E5F5F4F88819981480F591F518340832A
:1012E0008A819B81938382832115310509F0B0CFD8
:1012F000F0930102E09300029ECFFD01DC01C0CF1C
:1013000013821282D7CFB0E0A0E0E9E8F9E00C94B4
:10131000FB078C01009751F4CB010E945E088C0101
:10132000C801CDB7DEB7E0E10C941708FC01E60F69
:10133000F71F9C0122503109E217F30708F49DC002
:10134000D901CD91DC911197C617D70798F0C53018
:10135000D10530F3CE0104978617970708F3C61B13
:10136000D70B2297C193D1936D937C93CF010E94A9
:10137000FA08D6CF5B01AC1ABD0A4C018C0E9D1E3B
:10138000A0910002B0910102512C412CF12CE12CD2
:10139000109731F58091FE019091FF018815990514
:1013A00009F05CC04616570608F058C0809100014D
:1013B00090910101009741F48DB79EB740910401CF
:1013C00050910501841B950BE817F90708F055C0EB
:1013D000F093FF01E093FE01F90171836083A0CFD8
:1013E0008D919C91119712966C90129713967C9008
:1013F0001397A815B90559F56C0142E0C40ED11C2C
:10140000CA14DB0420F1AC014A195B09DA01129617
:10141000159780F06282738251834083D9016D9366
:101420007C93E114F10471F0D7011396FC93EE93D1
:10143000129776CF22968C0F9D1FF901918380839E
:10144000F301EFCFF0930102E093000269CF481659
:10145000590608F42C017D01D3019ACFCB010E94DB
:101460005E087C01009749F0AE01B8010E94400A75
:10147000C8010E94FA08870153CF10E000E050CF66
:10148000FB01DC0102C001900D9241505040D8F7A1
:101490000895FB01DC0101900D920020E1F7089511
:0414A000F894FFCFEE
:1014A4000000020280003F0006005B004F0066005F
:1014B4006D007D0007007F006F00000000005E02E9
:1014C4007E01AB01AB021C02BA010E020E000F003A
:1014D40010001100120013000D0A002C004E62725D
:1014E400206465207665686963756C65733A0000ED
:00000001FF
