:02000000DE29F7
:10000800FF00030E83018316A5000A08A4008A01D5
:1000180070088312A2007108A1007208A0000B1CCE
:1000280072280608F200720883162306F0001030C2
:100038007005F1007108003A03192D281030831259
:100048000605F1007108003A03192C288316A10A45
:100058006E28831672082306F00020307005F10020
:100068007108003A03194328203083120605F1006D
:100078007108003A031942288316A1036E288316D3
:1000880072082306F00040307005F1007108003A4C
:1000980003195928403083120605F1007108003A07
:1000A800031958288316A20A6E2883167208230695
:1000B800F00080307005F1007108003A03196E28CD
:1000C800803083120605F1007108003A03196E2882
:1000D8008316A20383167208A3000B10831222084A
:1000E800F0002108F1002008F200831624088A0095
:0A00F800250E8300FF0E7F0E0900A5
:100102008316031398188728000081283408831265
:040112009900080048
:1001160083120313F801F9011030FC00710DF80D7C
:10012600F90D7408F8027508031C750FF902031817
:10013600A3287408F80775080318750FF907031044
:0A014600F00DF10DFC0B91280800EC
:1001500083160313B1012F0884000008B000300893
:10016000003A0319BE283008B40081208316B10A72
:0E01700031082F0784000008B000AF280800F7
:10017E00831603132F08F200720884000008031977
:10018E00CA28F20AC3287208F100F20A3008F000F9
:10019E00B00A700884000008F0007108840070082E
:1001AE0080007108840000080319DE28CA282F0871
:0401BE00F000080045
:1001C20083160313B201053032020318EF283208F6
:1001D2003107840020308000B20AE4283208310757
:1001E20084008001B20332083107B3000A30F40000
:1001F200F5012F08F0003008F1008B207808F0009C
:100202007908F1003030F007831633088400700853
:1002120080000A30F400F5012F08F0003008F100E8
:100222008B2070088316AF007108B0000030710691
:10023200031D1D2900307006031D20292229B20347
:04024200F428080094
:0E024600831203136F088A006E0882000800FE
:100254008316031398169030831298008316871719
:10026400071383128C1E39291A08F0003329080059
:0E0274000030831203138C1A0130F0000800D2
:1002820083120313BC013C308316AF002830B00048
:10029200BF203C30AF002330B000BF203C30AF0065
:1002A2003230B000BF203C30AF002530B000BF205C
:0802B2003C30AF00A820080059
:1002BA00831203131A08F100981C652918121816DC
:0602CA007108F0000800BD
:1002D00023218A110A128000840AEE0A0319EF0A08
:0802E000F003031D682908006A
:1002E80083160313AB01AC012608AD002708AE0046
:1002F80080302706F00080307002031D8529003009
:100308002602031893290130AB000030AC00260800
:10031800003CAD002708031C013EAE01AE022D08CB
:10032800AF002E08B0002808B100E1200630A9006F
:100338000030AA002A08003C031DA4292908003C13
:100348000318BF2929082807F20001302902F00004
:100358000030031C013E2A02F100700828078400BF
:100368000008F00072088400700880000130A902BB
:10037800031CAA039E2928088400203080002B082B
:100388002C040319DD29A901AA01290828078400DA
:100398000008203A031DD429A90A0319AA0AC92961
:1003A8000130A902031CAA032908280784002D305C
:0403B80080000800B9
:1003BC002C3083120313A300A4010D30A5000A30C6
:1003CC00A600A7018316011788308B00F030860039
:1003DC000130A1000130A20083128610061106081C
:1003EC008316A3004D30990018152A210430FB0008
:1003FC000C30FC003330FD00FD0B022AFC0B022AF2
:10040C00FB0B022A0000000083162108A600A7019E
:10041C002830A80074212208A600A7013230A800B9
:10042C0074213A217008013A031D252A5D217008B8
:10043C008316A0007008523A031D252A4121831609
:10044C0021080A3C03182D2A831286142F2A8312A2
:10045C008610831622080A3C0318372A83120615C5
:10046C00392A831206118316A0010230FB00863054
:10047C00FC009930FD00FD0B412AFC0B412AFB0BC3
:06048C00412A0A2A482A59
:02400E004A2F37
:00000001FF
